{
  "_format": "hh-sol-artifact-1",
  "contractName": "Staker",
  "sourceName": "contracts/Staker.sol",
  "abi": [
    {
      "inputs": [
        {
          "internalType": "contract RewardToken",
          "name": "_tokenAddress",
          "type": "address"
        }
      ],
      "stateMutability": "nonpayable",
      "type": "constructor"
    },
    {
      "anonymous": false,
      "inputs": [
        {
          "indexed": false,
          "internalType": "uint256",
          "name": "_rewardRate",
          "type": "uint256"
        }
      ],
      "name": "ChangedRewardRate",
      "type": "event"
    },
    {
      "anonymous": false,
      "inputs": [
        {
          "indexed": true,
          "internalType": "address",
          "name": "user",
          "type": "address"
        },
        {
          "indexed": false,
          "internalType": "bool",
          "name": "applyFeeStatus",
          "type": "bool"
        }
      ],
      "name": "ChangedWithdrawFeeApplyStatus",
      "type": "event"
    },
    {
      "anonymous": false,
      "inputs": [
        {
          "indexed": true,
          "internalType": "address",
          "name": "user",
          "type": "address"
        },
        {
          "indexed": false,
          "internalType": "uint256",
          "name": "amount",
          "type": "uint256"
        }
      ],
      "name": "ClaimFinished",
      "type": "event"
    },
    {
      "anonymous": false,
      "inputs": [
        {
          "indexed": true,
          "internalType": "address",
          "name": "previousOwner",
          "type": "address"
        },
        {
          "indexed": true,
          "internalType": "address",
          "name": "newOwner",
          "type": "address"
        }
      ],
      "name": "OwnershipTransferred",
      "type": "event"
    },
    {
      "anonymous": false,
      "inputs": [
        {
          "indexed": true,
          "internalType": "address",
          "name": "user",
          "type": "address"
        },
        {
          "indexed": false,
          "internalType": "uint256",
          "name": "amount",
          "type": "uint256"
        }
      ],
      "name": "WithdrawFinished",
      "type": "event"
    },
    {
      "anonymous": false,
      "inputs": [
        {
          "indexed": true,
          "internalType": "address",
          "name": "user",
          "type": "address"
        },
        {
          "indexed": false,
          "internalType": "uint256",
          "name": "amount",
          "type": "uint256"
        }
      ],
      "name": "depositFinished",
      "type": "event"
    },
    {
      "inputs": [],
      "name": "claimReward",
      "outputs": [
        {
          "internalType": "bool",
          "name": "",
          "type": "bool"
        }
      ],
      "stateMutability": "nonpayable",
      "type": "function"
    },
    {
      "inputs": [
        {
          "internalType": "uint256",
          "name": "_amount",
          "type": "uint256"
        }
      ],
      "name": "deposit",
      "outputs": [
        {
          "internalType": "bool",
          "name": "",
          "type": "bool"
        }
      ],
      "stateMutability": "nonpayable",
      "type": "function"
    },
    {
      "inputs": [
        {
          "internalType": "address",
          "name": "_stakeholder",
          "type": "address"
        }
      ],
      "name": "depositOf",
      "outputs": [
        {
          "internalType": "uint256",
          "name": "",
          "type": "uint256"
        }
      ],
      "stateMutability": "view",
      "type": "function"
    },
    {
      "inputs": [
        {
          "internalType": "address",
          "name": "_stakeholder",
          "type": "address"
        }
      ],
      "name": "getLastTime",
      "outputs": [
        {
          "internalType": "uint256",
          "name": "",
          "type": "uint256"
        }
      ],
      "stateMutability": "view",
      "type": "function"
    },
    {
      "inputs": [],
      "name": "getRewardRate",
      "outputs": [
        {
          "internalType": "uint256",
          "name": "",
          "type": "uint256"
        }
      ],
      "stateMutability": "view",
      "type": "function"
    },
    {
      "inputs": [],
      "name": "getTotaldepositdAmount",
      "outputs": [
        {
          "internalType": "uint256",
          "name": "",
          "type": "uint256"
        }
      ],
      "stateMutability": "view",
      "type": "function"
    },
    {
      "inputs": [
        {
          "internalType": "address",
          "name": "_stakeholder",
          "type": "address"
        }
      ],
      "name": "getWithdrawFeeApplyStatus",
      "outputs": [
        {
          "internalType": "bool",
          "name": "",
          "type": "bool"
        }
      ],
      "stateMutability": "view",
      "type": "function"
    },
    {
      "inputs": [],
      "name": "owner",
      "outputs": [
        {
          "internalType": "address",
          "name": "",
          "type": "address"
        }
      ],
      "stateMutability": "view",
      "type": "function"
    },
    {
      "inputs": [],
      "name": "renounceOwnership",
      "outputs": [],
      "stateMutability": "nonpayable",
      "type": "function"
    },
    {
      "inputs": [
        {
          "internalType": "address",
          "name": "_stakeholder",
          "type": "address"
        }
      ],
      "name": "rewardOf",
      "outputs": [
        {
          "internalType": "uint256",
          "name": "",
          "type": "uint256"
        }
      ],
      "stateMutability": "view",
      "type": "function"
    },
    {
      "inputs": [],
      "name": "rewardToken",
      "outputs": [
        {
          "internalType": "contract RewardToken",
          "name": "",
          "type": "address"
        }
      ],
      "stateMutability": "view",
      "type": "function"
    },
    {
      "inputs": [
        {
          "internalType": "address",
          "name": "_stakeholder",
          "type": "address"
        },
        {
          "internalType": "uint256",
          "name": "_lastTime",
          "type": "uint256"
        }
      ],
      "name": "setLastTime",
      "outputs": [
        {
          "internalType": "bool",
          "name": "",
          "type": "bool"
        }
      ],
      "stateMutability": "nonpayable",
      "type": "function"
    },
    {
      "inputs": [
        {
          "internalType": "uint256",
          "name": "_rewardRate",
          "type": "uint256"
        }
      ],
      "name": "setRewardRate",
      "outputs": [
        {
          "internalType": "bool",
          "name": "",
          "type": "bool"
        }
      ],
      "stateMutability": "nonpayable",
      "type": "function"
    },
    {
      "inputs": [
        {
          "internalType": "address",
          "name": "_stakeholder",
          "type": "address"
        },
        {
          "internalType": "bool",
          "name": "_applyFee",
          "type": "bool"
        }
      ],
      "name": "setWithdrawFeeApplyStatus",
      "outputs": [
        {
          "internalType": "bool",
          "name": "",
          "type": "bool"
        }
      ],
      "stateMutability": "nonpayable",
      "type": "function"
    },
    {
      "inputs": [
        {
          "internalType": "address",
          "name": "",
          "type": "address"
        }
      ],
      "name": "stakeLists",
      "outputs": [
        {
          "internalType": "uint256",
          "name": "stakesAmount",
          "type": "uint256"
        },
        {
          "internalType": "uint256",
          "name": "rewardsAmount",
          "type": "uint256"
        },
        {
          "internalType": "uint256",
          "name": "lastUpdateTime",
          "type": "uint256"
        }
      ],
      "stateMutability": "view",
      "type": "function"
    },
    {
      "inputs": [
        {
          "internalType": "address",
          "name": "newOwner",
          "type": "address"
        }
      ],
      "name": "transferOwnership",
      "outputs": [],
      "stateMutability": "nonpayable",
      "type": "function"
    },
    {
      "inputs": [
        {
          "internalType": "address",
          "name": "_account",
          "type": "address"
        }
      ],
      "name": "updateReward",
      "outputs": [
        {
          "internalType": "uint256",
          "name": "",
          "type": "uint256"
        }
      ],
      "stateMutability": "view",
      "type": "function"
    },
    {
      "inputs": [
        {
          "internalType": "uint256",
          "name": "_amount",
          "type": "uint256"
        }
      ],
      "name": "withdraw",
      "outputs": [
        {
          "internalType": "bool",
          "name": "",
          "type": "bool"
        }
      ],
      "stateMutability": "nonpayable",
      "type": "function"
    },
    {
      "inputs": [
        {
          "internalType": "address",
          "name": "",
          "type": "address"
        }
      ],
      "name": "withdrawFeeApplyStatus",
      "outputs": [
        {
          "internalType": "bool",
          "name": "",
          "type": "bool"
        }
      ],
      "stateMutability": "view",
      "type": "function"
    }
  ],
  "bytecode": "0x608060405261271060025534801561001657600080fd5b50604051610ee0380380610ee0833981016040819052610035916100b3565b61003e33610063565b600180546001600160a01b0319166001600160a01b03929092169190911790556100e1565b600080546001600160a01b038381166001600160a01b0319831681178455604051919092169283917f8be0079c531659141344cd1fd0a4f28419497f9722a3daafe3b4186f6b6457e09190a35050565b6000602082840312156100c4578081fd5b81516001600160a01b03811681146100da578182fd5b9392505050565b610df0806100f06000396000f3fe608060405234801561001057600080fd5b50600436106100f15760003560e01c8063012a2b06146100f6578063168f83bb1461010d5780631d62ebd9146101575780632060e4261461018357806323e3fbd5146101bf5780632e1a7d4d146101e857806360b47b30146101fb578063632447c91461022c578063715018a61461023f5780637e1a3786146102495780638da5cb5b146102515780639e447fc6146102665780639e8c7d7f14610279578063b6b55f25146102a5578063b88a802f146102b8578063d54281e5146102c0578063ee7c04e4146102e3578063f2fde38b146102f6578063f7c618c114610309575b600080fd5b6003545b6040519081526020015b60405180910390f35b61013c61011b366004610b9f565b60046020526000908152604090208054600182015460029092015490919083565b60408051938452602084019290925290820152606001610104565b6100fa610165366004610b9f565b6001600160a01b031660009081526004602052604090206001015490565b6101af610191366004610b9f565b6001600160a01b031660009081526005602052604090205460ff1690565b6040519015158152602001610104565b6100fa6101cd366004610b9f565b6001600160a01b031660009081526004602052604090205490565b6101af6101f6366004610c34565b61031c565b6101af610209366004610bef565b6001600160a01b0391909116600090815260046020526040902060020155600190565b6100fa61023a366004610b9f565b610503565b610247610583565b005b6002546100fa565b6102596105be565b6040516101049190610c64565b6101af610274366004610c34565b6105cd565b6100fa610287366004610b9f565b6001600160a01b031660009081526004602052604090206002015490565b6101af6102b3366004610c34565b61069f565b6101af6108b0565b6101af6102ce366004610b9f565b60056020526000908152604090205460ff1681565b6101af6102f1366004610bb9565b6109df565b610247610304366004610b9f565b610a68565b600154610259906001600160a01b031681565b33600090815260046020526040812080546103695760405162461bcd60e51b81526020600482015260086024820152674e6f207374616b6560c01b60448201526064015b60405180910390fd5b600083116103895760405162461bcd60e51b815260040161036090610c91565b80548311156103f85760405162461bcd60e51b81526020600482015260416024820152600080516020610d9b83398151915260448201527f756c6420626520657175616c206f72206c657373207468616e206465706f73696064820152601d60fa1b608482015260a401610360565b60015460405163a9059cbb60e01b81526001600160a01b039091169063a9059cbb9061042a9033908790600401610c78565b602060405180830381600087803b15801561044457600080fd5b505af1158015610458573d6000803e3d6000fd5b505050506040513d601f19601f8201168201806040525081019061047c9190610c18565b5061048633610503565b816001018190555082600360008282546104a09190610d5f565b90915550508054839082906000906104b9908490610d5f565b909155505042600282015560405183815233907fc30674dd0fb78fbd6f76bcf2213e36dc143fad985b255420b31444f9f29f6d5c906020015b60405180910390a250600192915050565b6001600160a01b0381166000908152600460205260408120805461052b576001015492915050565b61057c610571601e61056b6201518061056b60035461056b88600001546105656002546105658c6002015442610b0890919063ffffffff16565b90610b14565b90610b20565b600183015490610b2c565b9392505050565b3361058c6105be565b6001600160a01b0316146105b25760405162461bcd60e51b815260040161036090610cd3565b6105bc6000610b38565b565b6000546001600160a01b031690565b6000336105d86105be565b6001600160a01b0316146105fe5760405162461bcd60e51b815260040161036090610cd3565b6000821161065e5760405162461bcd60e51b815260206004820152602760248201527f5468652072657761726420726174652073686f756c64206265206c61726765726044820152660207468616e20360cc1b6064820152608401610360565b60028290556040518281527f795c791fb6e51ddd4902b53633545225e56aa84cf12f492ce98b98aeb92a3e229060200160405180910390a15060015b919050565b6001546040516370a0823160e01b815260009183916001600160a01b03909116906370a08231906106d4903390600401610c64565b60206040518083038186803b1580156106ec57600080fd5b505afa158015610700573d6000803e3d6000fd5b505050506040513d601f19601f820116820180604052508101906107249190610c4c565b101561077c5760405162461bcd60e51b815260206004820152602160248201527f506c65617365206465706f736974206d6f726520696e20796f757220636172646044820152602160f81b6064820152608401610360565b6000821161079c5760405162461bcd60e51b815260040161036090610c91565b6001546040516323b872dd60e01b8152336004820152306024820152604481018490526001600160a01b03909116906323b872dd90606401602060405180830381600087803b1580156107ee57600080fd5b505af1158015610802573d6000803e3d6000fd5b505050506040513d601f19601f820116820180604052508101906108269190610c18565b503360008181526004602052604090209061084090610503565b8160010181905550826003600082825461085a9190610d08565b9091555050805483908290600090610873908490610d08565b909155505042600282015560405183815233907faf86f3718f6a9bee6a2ab3e7d9a314c3b87e8e76217fd2e579b9afbbfb449efc906020016104f2565b33600081815260046020526040812090916108ca90610503565b6001820181905561090a5760405162461bcd60e51b815260206004820152600a6024820152694e6f207265776172647360b01b6044820152606401610360565b600180820154905460405163a9059cbb60e01b81526001600160a01b039091169063a9059cbb906109419033908590600401610c78565b602060405180830381600087803b15801561095b57600080fd5b505af115801561096f573d6000803e3d6000fd5b505050506040513d601f19601f820116820180604052508101906109939190610c18565b506000600183015542600283015560405181815233907f08a015f214a42e58cca7fdb807f53a067701d355835cb4ae6c09da87b36f73ee9060200160405180910390a260019250505090565b6000336109ea6105be565b6001600160a01b031614610a105760405162461bcd60e51b815260040161036090610cd3565b6001600160a01b038316600081815260056020908152604091829020805460ff191686151590811790915591519182527f4b279bd05b5d1eb09a7de624717c08c296cfd450b0559ddac65cc5ff3ba2f35791016104f2565b33610a716105be565b6001600160a01b031614610a975760405162461bcd60e51b815260040161036090610cd3565b6001600160a01b038116610afc5760405162461bcd60e51b815260206004820152602660248201527f4f776e61626c653a206e6577206f776e657220697320746865207a65726f206160448201526564647265737360d01b6064820152608401610360565b610b0581610b38565b50565b600061057c8284610d5f565b600061057c8284610d40565b600061057c8284610d20565b600061057c8284610d08565b600080546001600160a01b038381166001600160a01b0319831681178455604051919092169283917f8be0079c531659141344cd1fd0a4f28419497f9722a3daafe3b4186f6b6457e09190a35050565b80356001600160a01b038116811461069a57600080fd5b600060208284031215610bb0578081fd5b61057c82610b88565b60008060408385031215610bcb578081fd5b610bd483610b88565b91506020830135610be481610d8c565b809150509250929050565b60008060408385031215610c01578182fd5b610c0a83610b88565b946020939093013593505050565b600060208284031215610c29578081fd5b815161057c81610d8c565b600060208284031215610c45578081fd5b5035919050565b600060208284031215610c5d578081fd5b5051919050565b6001600160a01b0391909116815260200190565b6001600160a01b03929092168252602082015260400190565b6020808252603490820152600080516020610d9b8339815191526040820152730756c64206265206c6172676572207468616e20360641b606082015260800190565b6020808252818101527f4f776e61626c653a2063616c6c6572206973206e6f7420746865206f776e6572604082015260600190565b60008219821115610d1b57610d1b610d76565b500190565b600082610d3b57634e487b7160e01b81526012600452602481fd5b500490565b6000816000190483118215151615610d5a57610d5a610d76565b500290565b600082821015610d7157610d71610d76565b500390565b634e487b7160e01b600052601160045260246000fd5b8015158114610b0557600080fdfe54686520616d6f756e7420746f206265207472616e736665727265642073686fa2646970667358221220068d77ef5be5304daa014a18fc7bf2c0fd88aac334cd294b6289e9b93156ed2564736f6c63430008040033",
  "linkReferences": {},
  "deployedLinkReferences": {}
}